:100000000C942A000C9447000C9447000C94470071
:100010000C9447000C9466020C9447000C94470023
:100020000C9447000C9447000C9447000C94470034
:100030000C94EF000C9446030C9447000C9447007A
:100040000C9447000C9447000C9447000C94470014
:100050000C94470011241FBECFE5D8E0DEBFCDBF12
:1000600012E0A0E6B0E0EEE7FEE002C005900D92DF
:10007000A03AB107D9F714E0A0EAB2E001C01D929E
:10008000AA31B107E1F70E9408060C943D070C94D1
:1000900000009AE0899FF0011124E056FD4F148280
:1000A00015821682178210821182128213821086A4
:1000B00011860895CF930E9454028BEB90E00E942A
:1000C0006102C0E08C2F0E944900CF5FCA30D1F797
:1000D000CF9108950F931F939AE0899FF001112407
:1000E000E056FD4F0081118122813381012B022BCB
:1000F000032B51F4408351836283738314821582EE
:1001000016821782108611861F910F910895CF9342
:10011000DF9320E030E0DAE0D29FF001D39FF00DD2
:100120001124E056FD4FC185C130E9F484819581E9
:10013000A681B7810196A11DB11D84839583A683F5
:10014000B783448155816681778180819181A281C5
:10015000B381481759076A077B0729F4148215826F
:1001600016821782C0872F5F3F4F2A303105A1F6D4
:10017000DF91CF9108950C9487009AE0899FF00158
:100180001124E056FD4F8085882319F0108681E008
:10019000089580E008959AE0899FF0011124E056C7
:1001A000FD4F4081518162817381452B462B472B46
:1001B00011F081E0818708959AE0899FF001112470
:1001C000E056FD4F118608959AE0899FF0011124B1
:1001D000E056FD4F148215821682178208951F92F1
:1001E0000F920FB60F9211242F933F934F938F933B
:1001F0009F93EF93FF934FB18091120490E0209171
:100200001304309114042817390731F1E0911604D2
:10021000F091170440838091160490911704019681
:1002200090931704809316042091100430911104C8
:100230008217930741F480910E0490910F049093DC
:10024000170480931604809113049091140401966E
:100250009093140480931304FF91EF919F918F91D9
:100260004F913F912F910F900FBE0F901F901895B7
:100270000F931F93CF93DF93C62FFB0190E060E0B5
:10028000D5E02E2F2C1B2817F8F4B19128E030E090
:1002900070E8192F111F1127111F990FA62FAA1FE0
:1002A000AA27AA1F9A2B660FA1E0072F0B2309F498
:1002B000A0E0A11711F06D279058769521503109D3
:1002C0002115310531F7DDCFFA0190836183DF918C
:1002D000CF911F910F910895CF93DF93C82FD82FFF
:1002E000D27081FF04C089E990E00E942D03C0FF15
:1002F00002C081E0D11180E0DF91CF910895DF92BB
:10030000EF92FF920F931F93CF93DF9300D000D013
:10031000CDB7DEB78C017B011C821B82DC018C9186
:100320008F3E09F06CC05F968C915F978E3F09F00D
:1003300069C05D968C915D9789835E968C918A8366
:10034000AE014D5F5F4FB8018CE10E94380142E081
:1003500050E0BE016D5F7F4FCE0101960E94FF0607
:10036000892B09F052C0F801448150E0542F4427F2
:100370008381480F511D399620E030E08191D701EB
:10038000A20FB31F1A968C932F5F3F4F2431310574
:10039000A9F7D80117968C911797F70187838C914D
:1003A000808311968C911197818312968C9112976C
:1003B0008283548343831596EC91E53028F4F0E072
:1003C000E555FF4F808101C085E0D70115968C93DC
:1003D000F80186810E946C01D70116968C931697BE
:1003E000F801808519968C931997258D30E05F96DA
:1003F0003C932E935E97878D90968C9308C092E0E5
:10040000D92E05C083E0D82E02C0DD24D3948D2DD3
:100410000F900F900F900F90DF91CF911F910F9140
:10042000FF90EF90DF900895882331F0E82FF0E0FF
:10043000E055FF4F808108958FEF0895813031F4AA
:1004400087B3806B87BB81E58DB901C0BE9A45E05B
:1004500050E060E070E087E00C946A001F93CF9357
:10046000DF93182FEB0187E00E94CB001FB9779B29
:1004700011C08FB1888387E00E94BD00C82F87E03C
:100480000E94DC0087E00E94E40081E0CC2341F080
:1004900080E006C087E00E94BD00882341F3E9CFD9
:1004A000DF91CF911F91089585B5876085BD89E75C
:1004B00084BD89B7806489BF88B7806488BF789419
:1004C0000895909305038093040308951F920F925B
:1004D0000FB60F9211242F933F934F935F936F9317
:1004E0007F938F939F93AF93BF93EF93FF93E0918D
:1004F0000403F0910503309709F0099589E784BD5D
:1005000088B7806488BFFF91EF91BF91AF919F91B1
:100510008F917F916F915F914F913F912F910F90AC
:100520000FBE0F901F901895CF92DF92EF92FF921F
:10053000CF93DF93EC0110920903109208031092FD
:100540000703109206031AB810BC288139814A812A
:100550005B8184E0220F331F441F551F8A95D1F71A
:1005600060E072E18AE790E00E94C90621503109FB
:1005700041095109C32ED42EE52EFF24C0BC29B950
:100580008F81882311F0579A78948885882311F0F9
:10059000569A789489858111549A8A858111539A43
:1005A00020B58E8130E1839FC0011124282B20BD0E
:1005B00020B58D8138E0839FC0011124282B20BDF8
:1005C0008C81893011F4529A0CC0853069F08630E4
:1005D00019F480B5826807C0873019F480B5846843
:1005E00002C080B5866880BDDF91CF91FF90EF900B
:1005F000DF90CF9008955D9BFECF8CB90895FF9258
:100600000F931F93CF93DF9300D000D000D0CDB7CE
:10061000DEB78E010F5F1F4F26E0F80111922A9579
:10062000E9F74AE050E0B8010E940C07F12CF8010C
:10063000EF0DF11D8081882321F00E94FB02F394CD
:10064000F6CF26960FB6F894DEBF0FBECDBFDF9172
:10065000CF911F910F91FF9008951F93CF93DF9338
:10066000EC0110E0FE01E10FF11D8081882351F0C3
:100670000E94FB028FE697E10197F1F700C00000AE
:100680001F5FF0CFDF91CF911F9108951F920F92BE
:100690000FB60F9211242F933F934F935F936F9355
:1006A0007F938F939F93EF93FF937CB16BB16871AE
:1006B00080910803909109030196992740910603C0
:1006C000509107039C0120583F4F332724173507CB
:1006D00011F410920C042091060330910703821745
:1006E000930729F481E080930D046FEF08C0909385
:1006F000090380930803FC01E55FFC4F708360935E
:100700000A03FF91EF919F918F917F916F915F917C
:100710004F913F912F910F900FBE0F901F90189502
:10072000CF93DF931F92CDB7DEB71982C49860E0F4
:1007300070E08F710E942E02BE016F5F7F4F8FEFBE
:100740000E942E02C49A89810F90DF91CF91089563
:10075000CF93C62FC4988F7160E070E080620E94D2
:100760002E0260E070E08C2F0E942E02C49ACF917E
:100770000895EF92FF920F931F93CF93DF93162F5D
:10078000F72E042FC4988F7160E070E080620E94A1
:100790002E02E12EC12FDF2D8C2F8E19801730F401
:1007A00060E070E089910E942E02F6CFC49ADF913A
:1007B000CF911F910F91FF90EF90089520E030E0CE
:1007C0000496FB01E20FF31FDC01A21BB30B4C915B
:1007D00040832F5F3F4F2530310599F70895CF9320
:1007E000DF9300D000D01F92CDB7DEB7282FCB010A
:1007F000211113C025E0FB01AEE7B0E001900D929E
:100800002A95E1F7BE016F5F7F4F0E94DE0345E04E
:10081000BE016F5F7F4F8AE014C02130A9F425E04C
:10082000FB01A9E7B0E001900D922A95E1F7BE0126
:100830006F5F7F4F0E94DE0345E0BE016F5F7F4F19
:100840008BE00E94B90338C0223061F425E0FB013F
:10085000A4E7B0E001900D922A95E1F7FB016481D5
:100860008CE028C0233061F425E0FB01AFE6B0E066
:1008700001900D922A95E1F7FB0164818DE01AC089
:10088000243061F425E0FB01AAE6B0E001900D926E
:100890002A95E1F7FB0164818EE00CC0253061F4FC
:1008A000FB01A5E6B0E001900D922A95E1F7FB016E
:1008B00064818FE00E94A8030F900F900F900F901B
:1008C0000F90DF91CF910895CF93DF9300D000D0A8
:1008D0001F92CDB7DEB725E0FC01A0E6B0E00190A5
:1008E0000D922A95E1F7BE016F5F7F4F0E94DE03F4
:1008F00045E0BE016F5F7F4F8AE00E94B90345E08B
:10090000BE016F5F7F4F80E10E94B9030F900F908F
:100910000F900F900F90DF91CF910895C49860E0F1
:1009200070E082EE0E942E0260E070E08FEF0E9485
:100930002E02C49A0895C49860E070E081EE0E948F
:100940002E0260E070E08FEF0E942E02C49A08959C
:100950006EE770E080E00E94EF0380E00E94900369
:10096000682F616080E00E94A80380E00E949003ED
:10097000682F626080E00E94A80360E787E00E9421
:10098000A8030E948E040E949B04C39A8BE291E00C
:100990000197F1F700C000000895CF93DF931F92F5
:1009A000CDB7DEB71982C498BE016F5F7F4F8FEF5E
:1009B0000E942E02C49A89810F90DF91CF910895F1
:1009C000CF93DF93EC010E94CD04982F807496FFA3
:1009D00005C0209719F0969597709883DF91CF9175
:1009E00008950F931F93CF93DF938C01C49860E019
:1009F00070E081E60E942E02C0E0D0E0B8016C0FEA
:100A00007D1F8FEF0E942E022196C032D105B1F7D3
:100A1000C49A60E487E00E94A8030E94CD0485FF89
:100A200004C060E287E00E94A8030E94CD0486FB18
:100A3000882780F9DF91CF911F910F910895CF936F
:100A400086E00E949003C82FC6606C2F86E00E944B
:100A5000A8038C2FCF910895CF9386E00E94900336
:100A6000C82FC77D6C2F86E00E94A8038C2FCF91E2
:100A70000895CF9380E00E949003C82FCC606C2F24
:100A800080E00E94A8038C2FCF910895CF93DF932D
:100A9000D82FBC9ABB9A81E00E941E02C398C49AC8
:100AA0008FE097E20197F1F700C000000E941F0558
:100AB0000E942C05C82F86E00E9490038C1759F0E5
:100AC0008EE691E00E942D0386E00E9490030E9432
:100AD000FB02C4E001C0C0E00E9439056FEF84E072
:100AE0000E94A80384E00E9490038F3F51F08EE79C
:100AF00091E00E942D0384E00E9490030E94FB027B
:100B0000C5E06D2F85E00E94A80385E00E94900358
:100B10008D1751F083E991E00E942D0385E00E943A
:100B200090030E94FB02C1E060E082E00E94A80303
:100B300082E00E949003682F616082E00E94A80317
:100B400082E00E949003682F646082E00E94A80304
:100B500081E00E949003682F616081E00E94A803F9
:100B600081E00E949003682F626081E00E94A803E8
:100B700081E00E949003682F646081E00E94A803D6
:100B800081E00E949003682F686081E00E94A803C2
:100B900081E00E949003682F606181E00E94A803B9
:100BA00081E00E949003682F606281E00E94A803A8
:100BB00066E08DE10E94A8036FE38CE10E94A80328
:100BC0006EE770E080E00E94EF0369E770E081E08B
:100BD0000E94EF0364E770E082E00E94EF036FE69B
:100BE00070E083E00E94EF036AE670E084E00E9418
:100BF000EF0365E670E085E00E94EF0380E690E099
:100C00000E9464040E94A8048C2FDF91CF91089564
:100C1000CF93DF93CDB7DEB7CE54D1090FB6F8949A
:100C2000DEBF0FBECDBF2F961FAE2F978E010E5B7E
:100C30001F4F8CE0F80111928A95E9F70E945A0043
:100C400042E050E060E070E089E00E946A0081E0EC
:100C50000E941E0283E890E00E9494028CE50E94AC
:100C6000460589EA91E00E942D03FE01B296CF016C
:100C700080967F011192E817F907E1F789E00E9459
:100C8000CB00D12C80E2B82EF7018B2D11928A95E2
:100C9000E9F7CE01825B9F4F0E94E0048823A1F315
:100CA000C7010E94F104BE016F5F7F4FC7010E9420
:100CB0007F018885811103C08EEB91E058C082309E
:100CC00071F482EE91E00E942D038B8590E00E94EA
:100CD000FF028DE091E00E942D03D12CD5CF83300F
:100CE00011F4D394D1CF813041F582E092E00E949B
:100CF0002D0380910B04811103C081E292E018C0A2
:100D00008AE392E00E942D03C12C80910B04C81647
:100D100068F4F801EC0DF11D808190E00E94FF0263
:100D20008AE492E00E942D03C394EFCF8DE091E01E
:100D30000E942D0310920B04A7CF843009F0A4CF9A
:100D40008EE492E00E942D0382E692E00E942D0341
:100D50008D2D90E00E94FF028CE692E00E942D0310
:100D60008B850E9414028D1105C082E792E00E94DB
:100D70002D038ACF8AE892E00E942D0380910B0414
:100D8000F801E80FF11D9B8590838F5F80930B0422
:100D90007BCFA1E21A2EAA1BBB1BFD010DC0AA1F0F
:100DA000BB1FEE1FFF1FA217B307E407F50720F0D4
:100DB000A21BB30BE40BF50B661F771F881F991F4F
:100DC0001A9469F760957095809590959B01AC0198
:100DD000BD01CF010895AA1BBB1B51E107C0AA1F8B
:100DE000BB1FA617B70710F0A61BB70B881F991FCC
:100DF0005A95A9F780959095BC01CD010895FB0106
:100E0000DC0104C08D910190801921F441505040C3
:100E1000C8F7881B990B0895FB019F01E8944230A5
:100E2000C4F04532B4F44A3029F497FB1EF490958F
:100E300081959F4F642F77270E94EB06805D8A3350
:100E40000CF0895D8193CB010097A1F716F45DE268
:100E500051931082C9010C942D07DC01FC01672F0E
:100E600071917723E1F7329704C07C916D93708381
:0E0E70006291AE17BF07C8F30895F894FFCF44
:100E7E00E8E8F0F0E2C1C2C2C2E5C1C2C2C2D4C14A
:100E8E00C2C2C2C3C1C2C2C2B2C1C2C2C2A1E8E81A
:100E9E00F0F0E280250000080000000001016672FB
:100EAE00616D652000200A200020736F75726365E6
:100EBE005F72657065617465722000000102030443
:100ECE00001F1D1F1E1F1E1F1F1E1F1E1F696E6669
:100EDE006F0D0A005354415455533A202530325861
:100EEE000D0A00434F4E4649473A20253032580DE1
:100EFE000A0052465F43483A20253032580D0A0008
:100F0E0052465F53455455503A20253032580D0AFB
:100F1E0000454E5F41413A20253032580D0A0045BA
:100F2E004E5F5258414444523A20253032580D0AF1
:100F3E0000205246204E4F5420436F6E6E656374F0
:100F4E006564200A00776169742041434B2054691F
:100F5E006D65204F75740073656E642064617465F1
:100F6E0020737563636573730A006D617820617514
:100F7E00746F207472616E736D6974200A00207331
:100F8E00657475705F6661696C6564200A007365CF
:100F9E007420726574726965735F6661696C6564ED
:100FAE00200A0020736574206368616E6E656C5F45
:100FBE006661696C6564200A00496E69742061730C
:100FCE002061207265636569766572200A0052653C
:100FDE006365697665642073746172742070726FD4
:100FEE006772616D6D696E6720636F6D6D616E64A2
:100FFE000A00726563656976656420737461727444
:10100E0020626C6F636B20666F72206D6F6E7468FA
:10101E002000726563656976656420656E64207074
:10102E00726F6772616D6D696E67206D6F64650AB0
:10103E00004E6F206572726F7220696E2070726F33
:10104E006772616D6D696E670A004552524F52208C
:10105E00696E20426C6F636B200020202000726549
:10106E0063656976656420656E6420626C6F636B80
:10107E000A00726563656976656420002064617993
:10108E000A00726563656976656420626C6F636BD6
:10109E0020636F72726563740A00726563656976A8
:1010AE00656420626C6F636B204552524F520A008A
:00000001FF
